:020000040800F2
:100000000000012025390008C90E0008CB0E0008A9
:10001000CD0E0008CF0E0008D10E00080000000031
:10002000000000000000000000000000D30E0008E7
:10003000D50E000800000000D70E0008D90E0008F9
:100040006D3900086D3900086D3900086D390008F8
:100050006D3900086D3900086D3900086D390008E8
:100060006D3900086D3900086D3900086D390008D8
:100070006D3900086D3900086D3900086D390008C8
:100080006D3900086D3900086D3900086D390008B8
:100090006D3900086D3900086D3900086D390008A8
:1000A0006D3900086D3900086D3900086D39000898
:1000B0006D3900086D3900086D3900086D39000888
:1000C0006D3900086D3900086D3900086D39000878
:1000D0006D390008E10E0008F10E00086D390008C6
:1000E0006D3900086D3900086D3900086D39000858
:1000F0006D3900086D3900086D3900086D39000848
:100100006D3900086D3900086D3900086D39000837
:100110006D3900086D3900086D3900086D39000827
:100120006D3900086D3900086D3900086D39000817
:1001300000000000000000000000000000000000BF
:1001400000000000000000000000000000000000AF
:10015000000000000000000000000000000000009F
:10016000000000000000000000000000000000008F
:10017000000000000000000000000000000000007F
:10018000000000000000000000000000000000006F
:10019000000000000000000000000000000000005F
:1001A000000000000000000000000000000000004F
:1001B000000000000000000000000000000000003F
:1001C000000000000000000000000000000000002F
:1001D000000000000000000000000000000000001F
:0401E0005FF8E0F1F3
:1001E40081F0004102E000BF83F0004330B54FEAE4
:1001F40041044FEA430594EA050F08BF90EA020F51
:100204001FBF54EA000C55EA020C7FEA645C7FEAE3
:10021400655C00F0E2804FEA5454D4EB5555B8BF06
:100224006D420CDD2C4480EA020281EA030382EA77
:10023400000083EA010180EA020281EA0303362D09
:1002440088BF30BD11F0004F4FEA01314FF4801CDC
:100254004CEA113102D0404261EB410113F0004FEE
:100264004FEA03334CEA133302D0524263EB4303A5
:1002740094EA050F00F0A780A4F10104D5F1200E43
:100284000DDB02FA0EFC22FA05F2801841F100019E
:1002940003FA0EF2801843FA05F359410EE0A5F172
:1002A40020050EF1200E012A03FA0EFC28BF4CF0A3
:1002B400020C43FA05F3C01851EBE37101F0004559
:1002C40007D54FF0000EDCF1000C7EEB00006EEB66
:1002D4000101B1F5801F1BD3B1F5001F0CD34908F0
:1002E4005FEA30004FEA3C0C04F101044FEA445247
:1002F40012F5800F80F09A80BCF1004F08BF5FEACE
:10030400500C50F1000041EB045141EA050130BDAD
:100314005FEA4C0C404141EB0101013C28BFB1F5BF
:10032400801FE9D291F0000F04BF01460020B1FA0A
:1003340081F308BF2033A3F10B03B3F120020CDADD
:100344000C3208DD02F1140CC2F10C0201FA0CF0BB
:1003540021FA02F10CE002F11402D8BFC2F1200C20
:1003640001FA02F120FA0CFCDCBF41EA0C019040D6
:10037400E41AA2BF01EB0451294330BD6FEA04041F
:100384001F3C1CDA0C340EDC04F11404C4F120020A
:1003940020FA04F001FA02F340EA030021FA04F31C
:1003A40045EA030130BDC4F10C04C4F1200220FA73
:1003B40002F001FA04F340EA0300294630BD21FAB1
:1003C40004F0294630BD94F0000F83F4801306BF77
:1003D40081F480110134013D4EE77FEA645C18BF6B
:1003E4007FEA655C29D094EA050F08BF90EA020F02
:1003F40005D054EA000C04BF1946104630BD91EAFA
:10040400030F1EBF0021002030BD5FEA545C05D1FC
:100414004000494128BF41F0004130BD14F580043B
:100424003CBF01F5801130BD01F0004545F0FE41AF
:1004340041F470014FF0000030BD7FEA645C1ABFE4
:10044400194610467FEA655C1CBF0B46024650EA1B
:10045400013406BF52EA033591EA030F41F4002147
:1004640030BD00BF90F0000F04BF0021704730B5CD
:100474004FF4806404F132044FF000054FF00001A2
:1004840050E700BF90F0000F04BF0021704730B563
:100494004FF4806404F1320410F0004548BF404238
:1004A4004FF000013EE700BF42004FEAE2014FEA8D
:1004B40031014FEA02701FBF12F07F4393F07F4F68
:1004C40081F06051704732F07F4208BF704793F06B
:1004D4007F4F04BF41F40021704730B54FF460747E
:1004E40001F0004521F000411CE700BF50EA010281
:1004F40008BF704730B54FF000050AE050EA01022A
:1005040008BF704730B511F0004502D5404261EB99
:1005140041014FF4806404F132045FEA915C3FF4DA
:10052400D8AE4FF003025FEADC0C18BF03325FEA77
:10053400DC0C18BF033202EBDC02C2F1200300FA28
:1005440003FC20FA02F001FA03FE40EA0E0021FA4D
:1005540002F11444BDE600BF80F0004002E000BF99
:1005640081F0004142001FBF5FEA410392EA030F9A
:100574007FEA226C7FEA236C6AD04FEA1262D2EBE4
:100584001363C1BFD218414048404140B8BF5B42E9
:10059400192B88BF704710F0004F40F4000020F082
:1005A4007F4018BF404211F0004F41F4000121F098
:1005B4007F4118BF494292EA030F3FD0A2F10102E2
:1005C40041FA03FC10EB0C00C3F1200301FA03F120
:1005D40000F0004302D5494260EB4000B0F5000F43
:1005E40013D3B0F1807F06D340084FEA310102F102
:1005F4000102FE2A51D2B1F1004F40EBC25008BFB4
:1006040020F0010040EA03007047490040EB00007D
:10061400013A28BFB0F5000FEDD2B0FA80FCACF17E
:10062400080CB2EB0C0200FA0CF0AABF00EBC250AB
:1006340052421843BCBFD0401843704792F0000F99
:1006440081F4000106BF80F400000132013BB5E7EC
:100654004FEA41037FEA226C18BF7FEA236C21D062
:1006640092EA030F04D092F0000F08BF08467047C7
:1006740090EA010F1CBF0020704712F07F4F04D195
:10068400400028BF40F00040704712F100723CBFA8
:1006940000F50000704700F0004343F0FE4040F4D2
:1006A400000070477FEA226216BF08467FEA236390
:1006B4000146420206BF5FEA412390EA010F40F47B
:1006C400800070474FF0000304E000BF10F00043C7
:1006D40048BF40425FEA000C08BF704743F09643AE
:1006E40001464FF000001CE050EA010208BF7047C9
:1006F4004FF000030AE000BF50EA010208BF704750
:1007040011F0004302D5404261EB41015FEA010C64
:1007140002BF84460146002043F0B64308BFA3F15C
:100724008053A3F50003BCFA8CF2083AA3EBC2533E
:1007340010DB01FA02FC634400FA02FCC2F120025D
:10074400BCF1004F20FA02F243EB020008BF20F094
:100754000100704702F1200201FA02FCC2F12002FA
:1007640050EA4C0021FA02F243EB020008BF20EAEF
:10077400DC7070474FF0FF0C1CEAD0521EBF1CEA1D
:10078400D15392EA0C0F93EA0C0F6FD01A4480EA0B
:10079400010C400218BF5FEA41211ED04FF00063F4
:1007A40043EA501043EA5111A0FB01310CF0004020
:1007B400B1F5000F3EBF490041EAD3715B0040EA46
:1007C400010062F17F02FD2A1DD8B3F1004F40EB16
:1007D400C25008BF20F00100704790F0000F0CF0E9
:1007E400004C08BF49024CEA502040EA51207F3AAD
:1007F400C2BFD2F1FF0340EAC250704740F4000088
:100804004FF00003013A5DDC12F1190FDCBF00F078
:1008140000407047C2F10002410021FA02F1C2F126
:10082400200200FA02FC5FEA310040F1000053EAC2
:100834004C0308BF20EADC70704792F0000F00F010
:10084400004C02BF400010F4000F013AF9D040EA16
:100854000C0093F0000F01F0004C02BF490011F4AA
:10086400000F013BF9D041EA0C018FE70CEAD153A8
:1008740092EA0C0F18BF93EA0C0F0AD030F0004C28
:1008840018BF31F0004CD8D180EA010000F00040DC
:10089400704790F0000F17BF90F0004F084691F09A
:1008A400000F91F0004F14D092EA0C0F01D14202D4
:1008B4000FD193EA0C0F03D14B0218BF084608D19D
:1008C40080EA010000F0004040F0FE4040F40000E7
:1008D400704740F0FE4040F4400070474FF0FF0C7A
:1008E4001CEAD0521EBF1CEAD15392EA0C0F93EAC1
:1008F4000C0F69D0A2EB030280EA010C49024FEA13
:10090400402037D04FF0805343EA111143EA1013CB
:100914000CF000408B4238BF5B0042F17D024FF483
:10092400000C8B4224BF5B1A40EA0C00B3EB510F5E
:1009340024BFA3EB510340EA5C00B3EB910F24BF47
:10094400A3EB910340EA9C00B3EBD10F24BFA3EBCC
:10095400D10340EADC001B0118BF5FEA1C1CE0D194
:10096400FD2A3FF650AF8B4240EBC25008BF20F047
:10097400010070470CF0004C4CEA50207F32C2BF9B
:10098400D2F1FF0340EAC250704740F400004FF038
:100994000003013A37E792F0000F00F0004C02BF69
:1009A400400010F4000F013AF9D040EA0C0093F033
:1009B400000F01F0004C02BF490011F4000F013B8D
:1009C400F9D041EA0C0195E70CEAD15392EA0C0FF5
:1009D40008D142027FF47DAF93EA0C0F7FF470AF2D
:1009E400084676E793EA0C0F04D14B023FF44CAF70
:1009F40008466EE730F0004C18BF31F0004CCAD105
:100A040030F000427FF45CAF31F000437FF43CAF40
:100A14005FE700BF4FF0FF3C06E000BF4FF0010C62
:100A240002E000BF4FF0010C4DF804CD4FEA400244
:100A34004FEA41037FEA226C18BF7FEA236C11D08E
:100A440001B052EA530C18BF90EA010F58BFB2EB41
:100A5400030088BFC81738BF6FEAE17018BF40F0C1
:100A6400010070477FEA226C02D15FEA402C05D175
:100A74007FEA236CE4D15FEA412CE1D05DF8040BFA
:100A8400704700BF844608466146FFE70FB5FFF78D
:100A9400C9FF002848BF10F1000F0FBD4DF808ED45
:100AA400FFF7F4FF0CBF012000205DF808FB00BF36
:100AB4004DF808EDFFF7EAFF34BF012000205DF890
:100AC40008FB00BF4DF808EDFFF7E0FF94BF0120DD
:100AD40000205DF808FB00BF4DF808EDFFF7D2FFDA
:100AE40094BF012000205DF808FB00BF4DF808ED1D
:100AF400FFF7C8FF34BF012000205DF808FB00BFEA
:100B040042000ED2B2F1FE4F0BD34FF09E03B3EB73
:100B1400126209D44FEA002343F0004323FA02F09F
:100B240070474FF00000704712F1610F01D142028B
:100B340002D14FF0FF3070474FF00000704700BF04
:100B44000348044B834202D0034B03B11847704758
:100B54005C0000205C000020000000000548064BFB
:100B64001B1AD90F01EBA301491002D0034B03B1A7
:100B7400184770475C0000205C0000200000000063
:100B840010B5064C237843B9FFF7DAFF044B13B1D1
:100B94000448AFF300800123237010BD5C000020E3
:100BA40000000000EC42000808B5054B1BB10549E4
:100BB4000548AFF30080BDE80840FFF7CFBF00BF92
:100BC4000000000060000020EC42000870B50446FC
:100BD400124B984203D0124B9C420FD070BD114E61
:100BE4001D464FF6FF7301223146284601F0EDFF02
:100BF40001223146284602F034FAECE70A4D1C463D
:100C04004FF6FF7301222946204601F0DEFF012240
:100C14002946204602F025FAE0E700BFCC02002076
:100C240084020020140100201001002072B6FEE7A7
:100C340010B590B006AC28220021204602F0B8FE80
:100C440000230193029303930493059301220692D4
:100C54004FF4803307930A9202220D920E934FF4BD
:100C6400E0130F93204600F0DFF978B90F230193C6
:100C740002210291002303934FF4806204920593AE
:100C840001A800F003FC18B910B010BDFFF7CEFFA7
:100C9400FFF7CCFF00B583B000F078F9FFF7C8FF89
:100CA40000F074F801F076F901F08EF901F0E2F841
:100CB40000F036FF00F068FF00F098FF00F0C8FF76
:100CC40002F0DCFB02F00AFE02F034FD224C4FF687
:100CD400FF730B222149204601F077FF01222049AE
:100CE400204602F0BEF91F4C4FF6FF730F221E4937
:100CF400204601F06AFF01221C49204602F0B1F9A6
:100D040002F064FC1A4B01931A4B009300231A4A15
:100D14001A491B4802F0B7F9012002F0A7FC01466A
:100D24000022174802F0C2F902F042FD012002F04D
:100D34009DFCFFF7B9FB02460B46124C12492046B4
:100D440002F014FE102322461946012002F0FAFB99
:100D5400142000F03FF9DFE7CC0200200443000830
:100D64001401002084020020104300081001002018
:100D7400000020410000C842CDCC4C3E7B142E3FE5
:100D840078000020AC000020204300082DE9F04743
:100D94008AB006AD00240694079408940994444B41
:100DA4009A6942F010029A619A6902F01002019263
:100DB400019A9A6942F004029A619A6902F0040263
:100DC4000292029A9A6942F040029A619A6902F088
:100DD40040020392039A9A6942F008029A619A695E
:100DE40002F008020492049A9A6942F020029A617D
:100DF4009B6903F020030593059BDFF8B890224616
:100E04004EF23031484600F035FDDFF8AC80012267
:100E140040F60B31404600F02DFD2246C0214046ED
:100E240000F028FDDFF894A022460121504600F08E
:100E340021FD0E230693079401260896294620488F
:100E440000F000FC4EF23003069307960894022744
:100E540009972946484600F0F5FB40F60B33069304
:100E64000796089609972946404600F0EBFBC023F5
:100E740006930796089409972946404600F0E2FB3A
:100E84004FF44073069311230793089403230993A3
:100E94002946484600F0D6FB06960796089409971B
:100EA4002946504600F0CEFB0AB0BDE8F08700BFEB
:100EB40000100240000C01400014014000180140E1
:100EC40000100140FEE7FEE7FEE7FEE7FEE770479D
:100ED4007047704708B500F06BF808BD08B50248C4
:100EE40001F062FF08BD00BFCC02002008B5024833
:100EF40001F05AFF08BD00BF8402002082B00E4BEF
:100F04009A6942F001029A619A6902F00102009220
:100F1400009ADA6942F08052DA61DB6903F08053A7
:100F24000193019B054A536823F0E06343F0007387
:100F3400536002B0704700BF00100240000001403F
:100F440010B504460E4B1A784FF47A73B3FBF2F3E0
:100F54000C4A1068B0FBF3F000F0CCFD68B90F2C1C
:100F640001D901200AE0002221464FF0FF3000F0B1
:100F7400A3FD054B1C60002000E0012010BD00BF54
:100F840000000020080000200400002008B5074AE3
:100F9400136843F010031360032000F07BFD0F205F
:100FA400FFF7CEFFFFF7AAFF002008BD0020024094
:100FB400034A1168034B1B780B441360704700BF4E
:100FC4001801002000000020014B1868704700BF82
:100FD4001801002038B50446FFF7F6FF0546B4F1C2
:100FE400FF3F02D0044B1B781C44FFF7EDFF401B6E
:100FF400A042FAD338BD00BF0000002082B0084BE5
:101004001B68084AA2FB03235B0A00FB03F301935A
:1010140000BF019B5A1E0192002BF9D102B0704708
:1010240008000020D34D6210002800F0F18170B553
:1010340082B00446036813F0010F2CD0994B5B680F
:1010440003F00C03042B1DD0964B5B6803F00C03D8
:10105400082B12D06368B3F5803F41D0002B55D1E3
:1010640003F1804303F504331A6822F480321A60D2
:101074001A6822F480221A6037E08A4B5B6813F402
:10108400803FE7D0874B1B6813F4003F03D06368AD
:10109400002B00F0BF81236813F0020F75D0814B41
:1010A4005B6813F00C0F5FD07E4B5B6803F00C039E
:1010B400082B54D02369002B00F08A807A4B01223C
:1010C4001A60FFF781FF0546764B1B6813F0020F89
:1010D40075D1FFF779FF401B0228F5D903209EE163
:1010E400704A136843F480331360636843B3FFF7B3
:1010F4006BFF05466B4B1B6813F4003FCBD1FFF726
:1011040063FF401B6428F5D9032088E1B3F5A02FC1
:1011140009D0644B1A6822F480321A601A6822F4E7
:1011240080221A60E1E703F18043A3F53C331A6897
:1011340042F480221A601A6842F480321A60D4E7BA
:10114400FFF742FF0546574B1B6813F4003FA2D03C
:10115400FFF73AFF401B6428F5D903205FE1514BA8
:101164005B6813F4803FA5D14E4B1B6813F0020F4C
:1011740003D02369012B40F04F814A4A136823F0BE
:10118400F803616943EAC1031360236813F0080F8D
:1011940033D0A369002B5CD0434B0122C3F88024D5
:1011A400FFF712FF05463F4B5B6A13F0020F21D194
:1011B400FFF70AFF401B0228F5D903202FE1394A23
:1011C400136823F0F803616943EAC1031360DCE7A1
:1011D400354B00221A60FFF7F7FE0546314B1B68BA
:1011E40013F0020FD1D0FFF7EFFE401B0228F5D910
:1011F400032014E10120FFF701FF236813F0040F1B
:1012040000F09680274BDB6913F0805F34D1254BC7
:10121400DA6942F08052DA61DB6903F080530193AA
:10122400019B0125214B1B6813F4807F26D0E368C2
:10123400012B3DD0002B53D103F1804303F504333C
:101244001A6A22F001021A621A6A22F004021A626D
:1012540033E0154B0022C3F88024FFF7B5FE0546A2
:10126400104B5B6A13F0020FC7D0FFF7ADFE401BB3
:101274000228F5D90320D2E00025D3E70B4A1368EE
:1012840043F480731360FFF79FFE0646074B1B6809
:1012940013F4807FCBD1FFF797FE801B6428F5D928
:1012A4000320BCE0001002400000424200700040F5
:1012B4005F4A136A43F001031362E36833B3FFF731
:1012C40083FE06465A4B1B6A13F0020F2FD1FFF719
:1012D4007BFE801B41F288339842F3D903209EE0C1
:1012E400052B09D0524B1A6A22F001021A621A6ABB
:1012F40022F004021A62E0E74D4B1A6A42F004023B
:101304001A621A6A42F001021A62D6E7FFF75CFE1B
:101314000646474B1B6A13F0020F08D0FFF754FE32
:10132400801B41F288339842F3D9032077E0E5B972
:10133400E369002B72D03E4A526802F00C02082A7C
:1013440056D0022B17D03B4B00221A66FFF73CFE07
:101354000446374B1B6813F0007F47D0FFF734FE79
:10136400001B0228F5D9032059E0314AD36923F040
:101374008053D361DCE72F4B00221A66FFF724FE6B
:1013840005462B4B1B6813F0007F06D0FFF71CFEAD
:10139400401B0228F5D9032041E0236AB3F5803FBE
:1013A4001AD023494B6823F47413226A606A0243F7
:1013B40013434B601F4B01221A66FFF705FE0446D8
:1013C4001B4B1B6813F0007F0ED1FFF7FDFD001BC4
:1013D4000228F5D9032022E0154A536823F4003388
:1013E400A1680B435360DCE7002018E0002016E0FE
:1013F400012B16D00E4B5B6803F48031226A9142B4
:1014040011D103F47013626A93420ED1002006E0F6
:1014140001207047012002E0012000E0002002B01A
:1014240070BD0120FBE70120F9E70120F7E700BFC9
:1014340000100240000042420F4B5B6803F00C02B4
:10144400082A01D00D487047C3F383420C49885CD5
:1014540013F4803F0BD0084B5B68C3F34043094A45
:10146400D35C064A02FB00F0B0FBF3F07047064B76
:1014740003FB00F0704700BF0010024000127A0026
:101484002C4300082843000800093D00002800F010
:10149400A08070B50D460446524B1B6803F0070349
:1014A4008B420BD24F4A136823F007030B4313609C
:1014B400136803F007038B4240F08D80236813F018
:1014C400020F17D013F0040F04D0474A536843F4B3
:1014D400E0635360236813F0080F04D0424A536852
:1014E40043F460535360404A536823F0F003A16807
:1014F4000B435360236813F0010F31D06368012B51
:1015040020D0022B25D0384A126812F0020F64D082
:1015140035494A6822F0030213434B60FFF754FD38
:101524000646314B5B6803F00C036268B3EB820F31
:1015340016D0FFF749FD801B41F288339842F0D959
:10154400032045E0284A126812F4003FE0D101204C
:101554003EE0254A126812F0007FD9D1012037E01D
:10156400204B1B6803F00703AB420AD91D4A1368DA
:1015740023F007032B431360136803F00703AB4204
:101584002DD1236813F0040F06D0174A536823F4AF
:10159400E063E1680B435360236813F0080F07D03E
:1015A400114A536823F46053216943EAC103536029
:1015B400FFF742FF0C4B5B68C3F303130B4AD35C86
:1015C400D8400B4B18600B4B1868FFF7B9FC002090
:1015D40070BD012070470120FAE70120F8E70120DF
:1015E400F6E700BF00200240001002404443000818
:1015F4000800002004000020014B1868704700BF59
:101604000800002008B5FFF7F7FF044B5B68C3F33D
:101614000223034AD35CD84008BD00BF0010024037
:101624003C43000808B5FFF7E7FF044B5B68C3F3CE
:10163400C223034AD35CD84008BD00BF0010024057
:101644003C43000870B582B00024A446A8E0834D52
:10165400AB4214D00CD8A5F58015AB420FD005F5DC
:101664007025AB420BD0A5F58015AB421FD106E027
:101674007B4DAB4203D005F58035AB4217D18B6867
:10168400A3B1012B0DD04261082410E0CC680EE018
:10169400CC6804340BE0CC68083408E0CC680C3423
:1016A40005E00261082402E0002400E00424BEF105
:1016B400FF0F41D806464FEA8C0233680F25954048
:1016C40023EA050304FA02F2134333604B6813F070
:1016D400805F63D0634B9A6942F001029A619B690F
:1016E40003F001030193019B4FEA9C02951C5E4B9E
:1016F40053F825600CF00305AD000F23AB4026EA38
:1017040003065A4B98421ED003F58063984200F0BA
:10171400838003F58063984200F0808003F5806342
:1017240098427DD003F5806398427BD003F58063B3
:10173400984206D0062307E0061DACF10802920089
:10174400BBE7052300E00023AB4033430232464DA0
:1017540045F822304B6813F4801F65D0444A9368DF
:1017640043EA0E0393604B6813F4001F62D0404AAF
:10177400D36843EA0E03D3604B6813F4003F5FD091
:101784003B4A536843EA0E0353604B6813F4803FAB
:101794005CD0374A136843EA0E0313600CF1010C62
:1017A4000B6833FA0CF257D0012202FA0CF203EA66
:1017B400020E32EA0303F1D14B68122B3FF647AF16
:1017C400122B3FF674AF01A555F823F083160008D9
:1017D400911600089B160008AD160008B316000801
:1017E400B3160008B3160008B3160008B3160008B1
:1017F400B3160008B3160008B3160008B3160008A1
:10180400B3160008B3160008B3160008B316000890
:1018140095160008A1160008012395E7022393E713
:10182400032391E704238FE7114A936823EA0E0305
:10183400936098E70E4AD36823EA0E03D3609BE7CC
:101844000B4A536823EA0E0353609EE7084A136861
:1018540023EA0E031360A1E702B070BD000022105A
:101864000000311000100240000001400008014057
:10187400000401400AB10161704709040161704725
:10188400034690F82120022A06D004228263002213
:1018940080F820200120704701680A6822F00E02B7
:1018A4000A6001680A6822F001020A60026CC06BD7
:1018B400012101FA02F2426083F82110002083F82A
:1018C4002000704708B590F82130022B03D0042380
:1018D4008363012008BD0268136823F00E031360BC
:1018E4000268136823F00103136003684B4A9342B0
:1018F4004ED9783A934224D01432934230D01432E1
:1019040093422FD0143293422FD0143293422FD0CB
:10191400143293422FD0143293422FD002F56272C4
:1019240093422ED0143293422DD0143293422CD0B1
:101934001432934202D04FF4803203E04FF48052C9
:1019440000E00122364B5A60012380F82130002345
:1019540080F82030436B002B5ED098470020B9E715
:101964001022EFE74FF48072ECE74FF48052E9E77E
:101974004FF48032E6E74FF48012E3E74FF08072D1
:10198400E0E70122DEE71022DCE74FF48072D9E7BA
:10199400244A934224D01432934225D014329342E1
:1019A40024D01432934224D01432934224D01432DB
:1019B400934224D01432934224D002F562729342AB
:1019C40023D01432934222D01432934221D01432C1
:1019D400934202D04FF4803203E04FF4805200E08F
:1019E4000122114B5A60AFE71022FAE74FF48072DC
:1019F400F7E74FF48052F4E74FF48032F1E74FF405
:101A04008012EEE74FF08072EBE70122E9E7102243
:101A1400E7E74FF48072E4E700205BE780000240D0
:101A2400000402400800024000000240002808DBD5
:101A34000901C9B200F1604000F5614080F800136B
:101A4400704700F00F000901C9B2014B19547047E7
:101A540014ED00E000B500F00700C0F1070CBCF184
:101A6400040F28BF4FF0040C031D062B0FD9C31E0F
:101A74004FF0FF3E0EFA0CF021EA000199400EFAF5
:101A840003FE22EA0E0241EA02005DF804FB002391
:101A9400EEE70000074AD36823F4E0631B041B0C41
:101AA400000200F4E060034343F0BF6343F40033F7
:101AB400D360704700ED00E010B50446054BD868CC
:101AC400C0F30220FFF7C6FF01462046FFF7AEFF32
:101AD40010BD00BF00ED00E0002807DB00F01F028E
:101AE400400901239340024A42F82030704700BF66
:101AF40000E100E00138B0F1807F0BD24FF0E02329
:101B04005861054AF02182F82310002098610722C9
:101B14001A6170470120704700ED00E07047000033
:101B240010B58CB003AC24220021204601F040FF04
:101B34000023019302931248124A026043608360B7
:101B44004FF6FF72C2600361436183610323039311
:101B5400012305930993214600F03EFC48B9002374
:101B64000193029301A9064800F0AEFE20B90CB01F
:101B740010BDFFF75BF8F2E7FFF758F8F7E700BF8F
:101B84003C020020002C014010B58CB003AC242290
:101B94000021204601F00CFF002301930293114819
:101BA400114A0260436083604FF6FF72C2600361B2
:101BB400836103230393012305930993214600F0D2
:101BC4000BFC48B900230193029301A9054800F0D6
:101BD4007BFE20B90CB010BDFFF728F8F2E7FFF741
:101BE40025F8F7E7F40100200004004010B58CB09C
:101BF40003AC24220021204601F0DAFE00230193E5
:101C040002931148114A0260436083604FF6FF72E9
:101C1400C260036183610323039301230593099342
:101C2400214600F0D9FB48B900230193029301A98E
:101C3400054800F049FE20B90CB010BDFEF7F6FFD0
:101C4400F2E7FEF7F3FFF7E7AC01002000080040DD
:101C540010B58CB003AC24220021204601F0A8FE6C
:101C64000023019302931148114A02604360836088
:101C74004FF6FF72C2600361836103230393012360
:101C840005930993214600F0A7FB48B9002301936B
:101C9400029301A9054800F017FE20B90CB010BD4D
:101CA400FEF7C4FFF2E7FEF7C1FFF7E76401002087
:101CB400000C004000B58DB00023089309930A93EB
:101CC4000B930368434A93420BD0434A93422AD06E
:101CD400424A934241D0424A934260D00DB05DF8EB
:101CE40004FB404B9A6942F400629A619A6902F4D7
:101CF40000620092009A9A6942F040029A619B69DC
:101D040003F040030193019B4FF42063089308A957
:101D14003548FFF797FC354A536843F0E06343F0D6
:101D2400C0035360DAE72F4BDA6942F00202DA614A
:101D3400DA6902F002020292029A9A6942F00402FB
:101D44009A619B6903F004030393039BC0230893E4
:101D540008A92748FFF776FCC0E7224BDA6942F06E
:101D64000402DA61DA6902F004020492049A9A69BC
:101D740042F020029A619B6903F020030593059BBE
:101D84004FF44053089308A91A48FFF75BFC174A1D
:101D9400536843F0E06343F4805353609EE7114B70
:101DA400DA6942F00802DA61DA6902F0080206929E
:101DB400069A9A6942F004029A619B6903F004034B
:101DC4000793079B0323089308A90948FFF73AFCE4
:101DD40084E700BF002C01400004004000080040DC
:101DE400000C0040001002400018014000000140B7
:101DF40000080140001401400268094B9A4200D0D7
:101E0400704782B003F55C439A6942F400529A61C8
:101E14009B6903F400530193019B02B0704700BF18
:101E24000034014000B587B0002302930393049368
:101E3400059302680D4B9A4202D007B05DF804FB8B
:101E440003F55C439A6942F010029A619B6903F0BE
:101E540010030193019B4FF47073029302230393C5
:101E6400059302A90248FFF7EDFBE6E700340140C1
:101E74000010014010B596B00024129413941494E9
:101E840015941094119409940A940B940C940D9441
:101E94000E940F942022214601A801F089FD3B48AD
:101EA4003B4B036040F2CF23436084606323C360F1
:101EB40004614461846100F037FA00284BD14FF487
:101EC4008053129312A9314800F094FB002845D1A5
:101ED4002E4800F055FA002843D1002310931193A3
:101EE40010A92A4800F0F0FC00283DD16023099392
:101EF40000220A920B920C920D920E920F9209A953
:101F0400224800F0FDFA002831D1042209A91F4813
:101F140000F0F6FA70BB082209A91C4800F0F0FA98
:101F240058BB0C2209A9194800F0EAFA40BB002367
:101F3400019302930393049305934FF40052069282
:101F4400089301A9114800F0FDFCE0B90F48FFF720
:101F540069FF16B010BDFEF769FEB0E7FEF766FE36
:101F6400B6E7FEF763FEB8E7FEF760FEBEE7FEF7EE
:101F74005DFECAE7FEF75AFECDE7FEF757FED0E74F
:101F8400FEF754FED3E7FEF751FEDFE71C01002005
:101F94000034014008B50A480A4B03604FF4E133AA
:101FA400436000238360C36003610C224261836148
:101FB400C36100F0DAFD00B908BDFEF737FEFBE7A8
:101FC400CC0200200038014008B50A480A4B0360DF
:101FD4004FF4E133436000238360C36003610C2248
:101FE40042618361C36100F0C0FD00B908BDFEF722
:101FF4001DFEFBE7840200200044004070B588B059
:10200400002304930593069307930368354A934288
:1020140004D0354A934234D008B070BD334B9A692A
:1020240042F480429A619A6902F480420092009AD2
:102034009A6942F004029A619B6903F004030193D4
:10204400019B4FF400730493022305930323079326
:1020540004AE274D31462846FFF7F4FA4FF4806367
:10206400049300240594069431462846FFF7EAFABF
:10207400224621462520FFF71FFD2520FFF72CFDD2
:10208400CAE71A4BDA6942F40032DA61DA6902F417
:1020940000320292029A9A6942F004029A619B69A0
:1020A40003F004030393039B042304930223059383
:1020B4000323079304AE0E4D31462846FFF7C2FAB8
:1020C4000823049300240594069431462846FFF718
:1020D400B9FA224621462620FFF7EEFC2620FFF718
:1020E400FBFC99E700380140004400400010024026
:1020F4000008014030B4036A026A22F0010202625D
:102104004268846924F0730C0C6844EA0C0423F0DC
:10211400020C8B6843EA0C03114DA84203D005F569
:102124000065A84205D123F00803CD682B4323F0B2
:1021340004030B4DA84203D005F50065A84207D15E
:1021440022F440724D6945EA020C8A6942EA0C02A3
:10215400426084614A684263036230BC704700BFD6
:10216400002C014030B4036A026A22F480720262D5
:102174004268C46924F0730C0C6844EA0C0523F427
:1021840000738C6843EA0423114CA04203D004F585
:102194000064A04206D123F40063CC6843EA04231C
:1021A40023F480630A4CA04203D004F50064A042E7
:1021B40007D122F440524C6942EA04128C6942EA83
:1021C40004124260C5614A68C263036230BC70474E
:1021D400002C014030B4036A026A22F48052026285
:1021E4004468C26922F4E6420D6842EA052223F4F7
:1021F40000538D6843EA0533094DA84203D005F521
:102204000065A84204D124F480444D6944EA85144D
:102214004460C2614A680264036230BC704700BF14
:10222400002C014010B4036A046A24F0010404621F
:10223400846924F0F00C4CEA021223F00A030B43E5
:102244008261036210BC704710B4036A046A24F00C
:1022540010040462846924F4704C4CEA023223F0C2
:10226400A00343EA01138261036210BC70478368D0
:1022740023F070030B4343F00703836070477047F8
:102284000368284A904212D002F5006290420ED0B0
:10229400B0F1804F0BD0A2F59832904207D002F5EE
:1022A4008062904203D002F58062904203D123F011
:1022B40070034A6813431B4A904212D002F500622D
:1022C40090420ED0B0F1804F0BD0A2F598329042DC
:1022D40007D002F58062904203D002F580629042FA
:1022E40003D123F44073CA68134323F080034A697B
:1022F400134303608B68C3620B688362094B984283
:1023040003D003F50063984201D10B6903630123F1
:102314004361036913F0010F03D0036923F0010340
:1023240003617047002C014040B310B5044690F897
:102334003D30F3B1022384F83D30214651F8040BBB
:10234400FFF79EFF012384F8463084F83E3084F87A
:102354003F3084F8403084F8413084F8423084F8C7
:10236400433084F8443084F8453084F83D3000200C
:1023740010BD80F83C30FFF73FFDDBE701207047DC
:1023840040B310B5044690F83D30F3B1022384F80D
:102394003D30214651F8040BFFF772FF012384F806
:1023A400463084F83E3084F83F3084F8403084F876
:1023B400413084F8423084F8433084F8443084F85F
:1023C400453084F83D30002010BD80F83C30FFF7E4
:1023D40056FFDBE701207047002856D070B50D4644
:1023E400044690F83D30002B4AD0022384F83D3057
:1023F4002268936823F4804323F007039360214603
:1024040051F8040BFFF73CFF21688B688A690E6A58
:102414002868184322F4407222F00302AB68D5F80E
:1024240018C043EA0C23134323F47C4323F0FC0336
:10243400EA68D5F81CC042EA0C221A432B6A1B0333
:10244400D5F810C043EA0C13134326F022066A6839
:102454006D6942EA05123243886021688B61236802
:102464001A62012384F8463084F83E3084F83F3001
:1024740084F8423084F8433084F83D30002070BD45
:1024840080F83C30FFF716FCAFE7012070470000EE
:1024940030B4036A026A22F010020262446882695C
:1024A40022F4E6420D6842EA052223F020038D68F7
:1024B40043EA0513114DA84203D005F50065A8426F
:1024C40006D123F08003CD6843EA051323F04003CB
:1024D4000A4DA84203D005F50065A84207D124F4AB
:1024E40040644D6944EA85048D6944EA8504446086
:1024F40082614A688263036230BC7047002C0140E9
:1025040038B590F83C30012B66D004460D460123C3
:1025140080F83C300C2A5AD8DFE802F007595959A0
:102524001B5959593059595944000068FFF7E2FDC5
:102534002268936943F0080393612268936923F046
:10254400040393612268936929690B439361002012
:102554003EE00068FFF79CFF2268936943F4006340
:1025640093612268936923F4806393612268936979
:10257400296943EA01239361002029E00068FFF7F9
:10258400F1FD2268D36943F00803D3612268D3695B
:1025940023F00403D3612268D36929690B43D3610F
:1025A400002015E00068FFF715FE2268D36943F4A4
:1025B4000063D3612268D36923F48063D361226802
:1025C400D369296943EA0123D361002000E0012093
:1025D400002384F83C3038BD0220FCE710B4846842
:1025E40024F47F4C42EA03220A4342EA0C0282604A
:1025F40010BC704790F83C30012B78D010B50446DD
:10260400012380F83C30022380F83D30026893684F
:1026140023F47F4323F0770393600B68602B4CD043
:1026240023D8402B54D011D8202B03D00AD80BB177
:10263400102B05D119462068FFF719FE002028E069
:10264400012026E0302BF5D0012022E0502B0AD1C6
:10265400CA6849680068FFF7E5FD50212068FFF764
:1026640006FE002015E0012013E0B3F5805F3AD0A8
:10267400B3F5005F14D0702B37D1CB684A688968F2
:102684000068FFF7ABFF2268936843F07703936019
:102694000020012384F83D30002384F83C3010BD31
:1026A400CB684A6889680068FFF798FF22689368D6
:1026B40043F4804393600020EBE7CA6849680068EC
:1026C400FFF7C2FD60212068FFF7D1FD0020E0E79D
:1026D400CA6849680068FFF7A5FD40212068FFF734
:1026E400C6FD0020D5E70020D3E70120D1E7022072
:1026F400704701F01F014FF0010C0CFA01FC036A52
:1027040023EA0C030362036A8A401343036270479B
:1027140010B504460846002939D194F83E30013BEF
:1027240018BF0123002B63D1002846D1022384F86B
:102734003E30012201462068FFF7DBFF23682E4A62
:10274400934203D002F50062934203D15A6C42F4DF
:1027540000425A642368284A93423ED002F500623C
:1027640093423AD0B3F1804F37D0A2F598329342D6
:1027740033D002F5806293422FD002F580629342F7
:102784002BD01A6842F001021A6000202FE00429BD
:1027940007D008290BD094F84130013B18BF01231E
:1027A400C0E794F83F30013B18BF0123BAE794F81F
:1027B4004030013B18BF0123B4E7042805D00828A2
:1027C40007D0022384F84130B3E7022384F83F3072
:1027D400AFE7022384F84030ABE79A6802F00702BF
:1027E400062A07D01A6842F001021A60002010BDC0
:1027F4000120FCE70020FAE7002C014038B504462C
:1028040090F83E00C0B294F83F3094F84220D2B21F
:1028140094F843C00D46B1B9012849D1012A48D1E1
:10282400022384F83E3084F842307DB3042D39D03D
:10283400012200212068FFF75CFF012204212068A7
:10284400FFF757FF27E0DBB25FFA8CFC042912D0B4
:10285400012833D1012B2CD1012A31D1BCF1010F34
:1028640030D1022384F83E3084F83F3084F842307B
:1028740084F84330D9E7012B1CD1BCF1010F1BD1E3
:10288400022384F83F3084F84330CEE7012200214C
:102894002068FFF72EFF2268136843F001031360DA
:1028A400002006E0012204212068FFF722FFF2E75E
:1028B400012038BD0120FCE71846FAE70120F8E7BB
:1028C4001846F6E71046F4E790F83C20012A34D085
:1028D40010B40346012280F83C20022280F83D20F7
:1028E40002685068946820F0700C086840EA0C0094
:1028F40050601A681248824212D000F50060824289
:102904000ED0B2F1804F0BD0A0F59830824207D0A0
:1029140000F58060824203D000F58060824204D1D9
:1029240024F08004496821439160012283F83D200A
:10293400002083F83C0010BC70470220704700BFA1
:10294400002C0140024690F83C30012B21D0012399
:1029540080F83C30CB6823F440738868034323F445
:1029640080634868034323F400630868034323F443
:1029740080530869034323F400534869034323F451
:102984008043C9690B4311684B64002082F83C0002
:10299400704702207047026802F10C0353E8003FBD
:1029A40023F490730C3242E800310029F3D1026819
:1029B40002F1140353E8003F23F00103143242E808
:1029C40000310029F3D1036B012B05D0202380F8BB
:1029D4004230002303637047026802F10C0353E89A
:1029E400003F23F010030C3242E800310029F3D1F8
:1029F400ECE790F84130212B01D002207047836826
:102A0400B3F5805F17D0036A5A1C02621A78036810
:102A14005A60C38C9BB2013B9BB2C3844BB902681E
:102A2400D36823F08003D3600268D36843F0400383
:102A3400D360002070470369002BE4D1036A1B882C
:102A44000268C3F308035360036A02330362E0E7D6
:102A540010B504460268136923F44053C1680B435C
:102A6400136183680269134342691A430168CB689E
:102A740023F4B05323F00C031343CB60026853696F
:102A840023F4407381690B4353610268134B9A42E8
:102A940020D0FEF7B7FD024602EB820202EB82026F
:102AA40063689B00B2FBF3F20D48A0FB02314909B5
:102AB400642303FB11231B013233A0FB03035B09D3
:102AC40003F0F00202EB011203F00F032168134438
:102AD4008B6010BDFEF7A6FD0246DDE7003801401D
:102AE4001F85EB512DE9F04383B005460E4617468A
:102AF4009946DDF828802B681C6836EA04040CBF6C
:102B040001240024BC4228D1B8F1FF3FF3D0FEF7E2
:102B14005BFAA0EB0900404523D8B8F1000F22D09E
:102B24002B68DA6812F0040FE5D0802EE3D0402E33
:102B3400E1D01A6812F0080FDDD0002401941A685D
:102B440001925B680193019B2846FFF724FF082349
:102B54006B6485F84040012000E0002003B0BDE82C
:102B6400F0830320FAE70320F8E760B310B50446C6
:102B740090F8413013B3242384F841302268D36899
:102B840023F40053D3602046FFF762FF22681369E1
:102B940023F4904313612268536923F02A03536199
:102BA4002268D36843F40053D36000206064202378
:102BB40084F8413084F84230606310BD80F84030BE
:102BC400FFF71CFAD7E7012070472DE9F04182B0E6
:102BD4001E4690F84130202B56D104460D469046AF
:102BE400002955D00AB901204FE000234364212372
:102BF40080F84130FEF7E8F90746A4F82480A4F8E9
:102C04002680A368B3F5805F02D04FF0000814E07B
:102C140023692BB34FF000080FE0202384F84130E0
:102C2400032032E038F8023B2268C3F30803536000
:102C3400E28C92B2013A92B2E284E38C9BB293B1F9
:102C440000963B46002280212046FFF74BFF0028D8
:102C5400E3D1002DE6D015F8012B23685A60E7E78D
:102C6400A8460025E9E700963B460022402120467D
:102C7400FFF738FF18B9202384F8413005E02023FA
:102C840084F84130032000E0022002B0BDE8F08166
:102C94000120FAE7704708B50168CA6822F04002CB
:102CA400CA60202280F84120FFF7F4FF002008BD0D
:102CB400704708B5406A0023C385C384FFF7F8FF53
:102CC40008BD704790F84230222B69D18368B3F570
:102CD400805F4FD0826AB3F5805F04D0002B56D159
:102CE4000369002B53D103685B681370836A013353
:102CF4008362C38D9BB2013B9BB2C385002B51D130
:102D040000B583B00268D36823F02003D36002685F
:102D1400D36823F48073D3600268536923F00103FA
:102D24005361202380F8423000234363036B012B5B
:102D340033D100230363026802F10C0353E8003F1C
:102D440023F010030C3242E800310029F3D1036868
:102D54001A6812F0100F06D0002201921A6801922C
:102D64005B680193019B818DFFF7ABFF002003B0EB
:102D74005DF804FB0269002AACD1826A03685B68CF
:102D8400C3F308031380836A02338362B1E70368E1
:102D94005B6803F07F031370A8E7FDF717FFE5E70F
:102DA400022070470020704710B582B004460268C4
:102DB4001368D068516913F00F0F09D113F0200F75
:102DC4000CD010F0200F09D02046FFF77BFF16E04F
:102DD40011F0010115D110F4907F12D1216B01295A
:102DE40079D013F0800F03D010F0800F40F01381DE
:102DF40013F0400F03D010F0400F40F0108102B0E8
:102E040010BD13F0010F06D010F4807F03D0626C64
:102E140042F00102626413F0040F04D019B1626C31
:102E240042F00202626413F0020F04D019B1626C22
:102E340042F00402626413F0080F07D010F0200F70
:102E440000D119B1626C42F008026264626C002A1B
:102E5400D5D013F0200F02D010F0200F29D1236811
:102E64005B6903F04003626C12F0080F00D163B396
:102E74002046FFF790FD23685B6913F0400F20D0D4
:102E8400226802F1140353E8003F23F04003143294
:102E940042E800310029F3D1E36B73B1624A5A630B
:102EA400E06BFEF70FFD0028A9D0E06B436B984759
:102EB400A5E72046FFF706FFD1E72046FFF7F8FE17
:102EC4009DE72046FFF7F4FE99E72046FFF7F0FE62
:102ED4000023636493E713F0100F82D010F0100FF7
:102EE4003FF47FAF00230193136801935368019368
:102EF400019B536913F0400F51D0E26B13685B6878
:102F04009BB2002B3FF47BAFA18D99427FF677AF44
:102F1400E3859369202B37D0226802F10C0353E830
:102F2400003F23F480730C3242E800310029F3D1CE
:102F3400226802F1140353E8003F23F00103143222
:102F440042E800310029F3D1226802F1140353E866
:102F5400003F23F04003143242E800310029F3D14A
:102F6400202384F8423000232363226802F10C03F7
:102F740053E8003F23F010030C3242E800310029EB
:102F8400F3D1E06BFEF77CFC02236363A18DE38D38
:102F94009BB2C91A89B22046FFF793FE2FE7A18D91
:102FA400E38D9BB2C91A89B2E38D9BB2002B3FF427
:102FB40026AF00293FF423AF226802F10C0353E843
:102FC400003F23F490730C3242E800300028F3D120
:102FD400226802F1140353E8003F23F00103143282
:102FE40042E800300028F3D1202384F84230002343
:102FF4002363226802F10C0353E8003F23F010031B
:103004000C3242E800300028F3D1022363632046E7
:10301400FFF757FEF3E62046FFF7EBFCEFE620460A
:10302400FFF739FEEBE600BFB72C0008816282850A
:10303400C28500234364222380F84230036923B10C
:103044000268D36843F48073D3600268536943F021
:10305400010353610268D36843F02003D360002066
:10306400704708B590F84230202B08D149B10AB90D
:10307400012008BD00230363FFF7D8FFF9E702200E
:10308400F7E70120F5E7016042608360009B03637A
:10309400019BC362704710B504460021FDF708FD8B
:1030A40008B9204610BD04F10044FAE72DE9F843BD
:1030B40004461046E26026696661FDF751FA05464A
:1030C40020613146FDF74CFA0746A0612168284685
:1030D400FDF750FB0646E061D4F804800021404629
:1030E400FDF7DCFC50B9D4F8209041462846FDF7A2
:1030F40041FB01464846FDF735FA2062A16838468F
:10310400FDF738FB05466062D4F820804046FFF79F
:10311400C2FFE76A3946FDF7E9FC28B100214046C1
:10312400FDF7C6FCD0B92762216A3046FDF71AFACA
:1031340001462846FDF716FA0546A062FFF7ABFFE5
:10314400266B3146FDF7D2FC28B100212846FDF755
:10315400AFFC38B9A662A06ABDE8F88307F100475E
:103164002762E1E706F10046A662F4E744F274033D
:1031740003FB00F0054B186003E0044A1368013BAD
:103184001360024B1B68002BF7D170471C0300200F
:10319400044B0F221A60034A1368591E1160002B56
:1031A400F9D170471803002010B50A4C4FF480730E
:1031B40023614FF400732361FFF7EAFF4FF080733C
:1031C4002361FFF7E5FF4FF000732361FFF7E0FF92
:1031D40010BD00BF000C014010B5064C4FF08073C9
:1031E40023614FF400732361FFF7D2FF4FF4807320
:1031F400236110BD000C014010B5084C4FF48073DE
:103204002361FFF7C5FF4FF400732361FFF7C0FF8D
:103214004FF000732361FFF7BBFF10BD000C0140AA
:1032240070B50446002512E00E4B4FF480721A610B
:10323400FFF7AEFF0B4E4FF400733361FFF7A8FFA7
:103244004FF0007333616400E4B20135EDB2072D31
:1032540007D814F0800FE7D1024B4FF080721A6147
:10326400E6E770BD000C014010B50446FFF79CFF73
:103274007820FFF7D5FFFFF7BFFF0020FFF7D0FF4F
:10328400FFF7BAFF2046FFF7CBFFFFF7B5FFFFF7C5
:10329400A3FF10BD4FEAD10C01F00701012303FA8B
:1032A40001F1C9B242B10C4B03EBC00313F80C207B
:1032B4000A4303F80C207047074A02EBC00212F8D5
:1032C4000C30DB43DBB202F80C300B4302F80C3059
:1032D400DB4302F80C307047200300202DE9F8434B
:1032E40007460C461D463E4B198015F0070318BFD0
:1032F400012303EBD503690801FB03F339490B7080
:10330400203A5FFA82F84FF00009364B1B784B45A0
:1033140064D9A5F10C03142B60D8DFE803F00B5F2C
:103324005F5F165F5F5F5F5F5F5F1E5F5F5F5F5F33
:103334005F5F280008EB48022B4B03EB820313F872
:1033440009202A4B1A7000262FE0294B03EB08139F
:1033540013F80920254B1A70F5E708EBC802254B32
:1033640003EB820313F80920204B1A70EBE7224B7E
:1033740003EB881313F809201C4B1A70E3E70122AE
:10338400E1B2F8B2FFF786FF184A13785B001370B6
:103394000134A4B2194B5B88A3421FD9104B1B887C
:1033A400E21AAA420ED00136F6B2072E11D80F4BFC
:1033B40093F90030002BE2DB0022E1B2F8B2FFF710
:1033C40069FFE1E70137BFB20C4A1288BA4205D956
:1033D4001C4609F101095FFA89F996E7BDE8F8830B
:1033E4001603002015030020606E0008140300205B
:1033F40070680008145B000854430008200700208C
:1034040038B5002503E0FFF7E7FE0135EDB2072DDF
:1034140025D8A5F15000C0B2FFF726FF0020FFF722
:1034240023FF1020FFF720FFFFF7BEFE7820FFF7F1
:10343400F7FEFFF7E1FE4020FFF7F2FEFFF7DCFEA8
:10344400002414F0800FDED1054B03EBC403585D58
:10345400FFF7E6FEFFF7D0FE0134E4B2F1E738BD32
:103464002003002008B54FF480620021024800F0D8
:103474009FFAFFF7C5FF08BD2003002008B56420AC
:10348400FFF774FEAE20FFF7EFFE0020FFF7ECFE1F
:103494001020FFF7E9FE4020FFF7E6FE8120FFF74A
:1034A400E3FECF20FFF7E0FEA120FFF7DDFEC820FA
:1034B400FFF7DAFEA620FFF7D7FEA820FFF7D4FE19
:1034C4003F20FFF7D1FED320FFF7CEFE0020FFF709
:1034D400CBFED520FFF7C8FE8020FFF7C5FED9201C
:1034E400FFF7C2FEF120FFF7BFFEDA20FFF7BCFEB4
:1034F4001220FFF7B9FEDB20FFF7B6FE4020FFF7EE
:10350400B3FE2020FFF7B0FE0220FFF7ADFE8D20B2
:10351400FFF7AAFE1420FFF7A7FEA420FFF7A4FEDE
:10352400A620FFF7A1FEFFF79DFFAF20FFF79CFE4B
:10353400034B01221A7180221A8040225A8008BD4E
:10354400200700202DE9F0411D461F4B1B79002B5D
:1035540038D080460E461746A5F10C03142B0CD820
:10356400DFE803F00C0B0B0B0C0B0B0B0B0B0B0B17
:103574000C0B0B0B0B0B0B0B0C001825444609E032
:10358400114B5B885B1A9E421CDC7E2A0ED90237E3
:103594002C44A4B23A789AB10B4B1B8829465B1B86
:1035A4009C42EDDD2E44B6B24446E9E72B46314653
:1035B4002046FFF793FE013704EB5504A4B2E9E774
:1035C400FFF71EFFBDE8F0812007002010B53C2165
:1035D4002048FFF713F93C211F48FFF70FF93C215E
:1035E4001E48FFF70BF93C211D48FFF707F900249B
:1035F40006E0184B1B685A6A1A4B43F8242001341E
:10360400032C26DCFDF7E0FC174B43F82400032CC5
:10361400F5D801A353F824F0F73500082D36000837
:103624003B360008493600080B4B1B685A6A0D4BA1
:1036340043F82420E3E7094B1B685A6A094B43F813
:103644002420DCE7064B1B685A6A064B43F8242007
:10365400D5E710BD64010020F4010020AC01002076
:103664003C0200203807002028070020032847D800
:103674002DE9F8430446032844D8DFE800F0023972
:103684003537224B1B68D3F82490FDF79DFC054683
:103694001F4B53F82470A9EB0707B7F5004F29DB3C
:1036A400A7F58037DFF86C8058F82400281AFDF756
:1036B40009F81949FDF712F90646154B43F8249009
:1036C40048F824501549FDF7F3F9E8B93846FCF7F2
:1036D400FDFF3146FDF702F91149FDF74BF8114999
:1036E400FDF7FCF8BDE8F8830F4BCBE70F4BC9E7B8
:1036F4000F4BC7E717F5004FD4DA07F58037D1E74A
:10370400002070470020EDE70020EBE76401002073
:10371400380700202807002000007A4417B7D13862
:10372400000070420000A544AC0100203C020020CF
:10373400F40100200023034A1360034A1360034A80
:1037440013607047500700204C07002048070020F2
:1037540038B504460021FDF7BFF988B1124B1D6846
:103764002046FDF7CDF96863104C012280212046E4
:10377400FEF780F8002240212046FEF77BF838BD92
:1037840004F10040084B1C68FDF7BAF96063074C6C
:10379400002280212046FEF76DF8012240212046B8
:1037A400FEF768F8EBE700BF1C010020001401409D
:1037B40038B504460021FDF78FF988B1124B1D6816
:1037C4002046FDF79DF9A863104C002210212046E5
:1037D400FEF750F8012220212046FEF74BF838BDB1
:1037E40004F10040084B1C68FDF78AF9A063074CFC
:1037F400012210212046FEF73DF800222021204618
:10380400FEF738F8EBE700BF1C010020000C014074
:1038140038B504460021FDF75FF988B1124B1D68E5
:103824002046FDF76DF9E86301224FF400510F487B
:10383400FEF720F8002201210D48FEF71BF838BDE1
:1038440004F10040084B1C68FDF75AF9E0630022BC
:103854004FF400510548FEF70DF8012211460448C3
:10386400FEF708F8EBE700BF1C010020000C014044
:103874000018014038B504460021FDF72DF998B130
:10388400144B1D682046FDF73BF92864124C0122B5
:103894004FF480412046FDF7EDFF00224FF4004134
:1038A4002046FDF7E7FF38BD04F10040094B1C68D2
:1038B400FDF726F92064084C00224FF4804120468D
:1038C400FDF7D8FF01224FF400412046FDF7D2FF57
:1038D400E9E700BF1C010020000C014010B50F4CAB
:1038E40000212046FEF714FF04212046FEF710FFB6
:1038F40008212046FEF70CFF0C212046FEF708FFA6
:1039040000242046FFF724FF2046FFF751FF2046FE
:10391400FFF77EFF2046FFF7ADFF10BD1C0100201E
:10392400FEF7FCF80B480C490C4A002302E0D4587B
:10393400C4500433C4188C42F9D3094A094C0023F7
:1039440001E013600432A242FBD300F039F8FDF722
:10395400A1F97047000000205C00002010730008EB
:103964005C000020A0080020FEE700000EB46FF009
:10397400004110B500249DB01FAB02900690079142
:1039840004910948094953F8042B0591006802A9D8
:1039940001931B9400F090F9029B1C701DB0BDE8CC
:1039A400104003B0704700BF0C0000200802FFFF66
:1039B40003460244934200D1704703F8011BF9E720
:1039C40070B500260C4D0D4B5B1B9C10A64209D113
:1039D400002600F089FC0A4D0A4B5B1B9C10A64292
:1039E40005D170BD55F8043B98470136EEE755F80C
:1039F400043B98470136F2E708730008087300088F
:103A0400087300080C7300087047704738B5054602
:103A1400002940D051F8043C0C1F002BB8BFE41817
:103A240000F0DEF81C4A136833B96360146028465A
:103A3400BDE8384000F0DAB8A34208D9206821185C
:103A44008B4201BF19685B6809182160EDE71A46CB
:103A54005B680BB1A342FAD911685018A0420BD18C
:103A640020680144501883421160E0D118685B68F3
:103A7400084410605360DAE702D90C232B60D6E7C0
:103A8400206821188B4201BF19685B6809182160FE
:103A940063605460CBE738BD9808002070B50F4EC2
:103AA4000C463168054611B900F0AEFB3060214682
:103AB400284600F0A9FB431C03D14FF0FF342046F5
:103AC40070BDC41C24F00304A042F8D0211A284677
:103AD40000F09AFB0130F2D1EFE700BF9408002018
:103AE4002DE9F843CD1C25F0030508350C2D38BF0E
:103AF4000C25002D064601DBA94204D90C233360B2
:103B04000020BDE8F883DFF8D48000F069F8D8F825
:103B140000301C4644BB29463046FFF7BFFF431C18
:103B2400044658D1D8F800402746002F43D1002C32
:103B34004BD023683946304604EB030900F064FB9C
:103B4400814542D1216830466D1A2946FFF7A6FF08
:103B540001303AD023682B442360D8F800305A68E7
:103B640062BBC8F800700FE02268521B20D40B2AF5
:103B740017D96119A342256018BF5960636808BF4B
:103B8400C8F8001062514B60304600F02FF804F181
:103B94000B00231D20F00700C21A1CBF1B1AA350E0
:103BA400AFE76268A3420CBFC8F800205A60EBE795
:103BB40023466468AEE73C467F68B6E71A465B680E
:103BC400A342FBD100235360DEE70C23304633606D
:103BD40000F00CF894E70560D6E700BF98080020D1
:103BE4000148FFF711BF00BF900800200148FFF70C
:103BF4000CBF00BF900800202DE9F0471F468E68D7
:103C04008246BE420C469046334653D8B1F90C0066
:103C140010F4906F2BD065692368096905EB45059D
:103C2400A3EB010905EBD5757B1C6D104B44AB422E
:103C34002A4684BF1D462A46430527D511465046C9
:103C4400FFF74EFF064658B34A46216900F0FAFAD8
:103C5400A38923F4906343F08003A38126614E4437
:103C640026603B463E466561A5EB0905A5601F46F7
:103C74003A464146206800F0ADFA0020A3689B1B39
:103C8400A36023683B442360BDE8F087504600F0FE
:103C9400E7FA06460028E1D150462169FFF7B6FE4F
:103CA4000C23CAF80030A3894FF0FF3043F04003DF
:103CB400A381E9E73E46DBE72DE9F04F98468B897F
:103CC40007461B060D4614469DB010D50B6973B903
:103CD4004021FFF705FF2860286130B90C233B60C1
:103CE4004FF0FF301DB0BDE8F08F40236B6100231F
:103CF400099320238DF8293030234FF00109CDF8A2
:103D04000C80DFF898818DF82A3023469A4613F800
:103D1400012B0AB1252AF9D1BAEB040B0BD05B466F
:103D2400224629463846FFF767FF013000F0A78096
:103D3400099A5A4409929AF80030002B00F09F80A7
:103D440000234FF0FF32CDE905230AF1010A049361
:103D540007938DF853301A935446052214F8011B27
:103D64004E4800F061FA049AD8B9D00644BF202323
:103D74008DF85330110744BF2B238DF853309AF834
:103D840000302A2B15D0544600204FF00A0C079A15
:103D9400214611F8013B303B092B4BD9B0B10792B6
:103DA40014E0A0EB080309FA03F31343A2460493B7
:103DB400D2E7039B191D1B680391002BBBBF5B4219
:103DC40042F0020207930793B8BF049223782E2B84
:103DD4000AD163782A2B32D1039B02341A1D1B6843
:103DE400039243EAE3730593DFF8B4A00322504639
:103DF400217800F019FA38B14022049BA0EB0A00A4
:103E0400824013430134049314F8011B062225480D
:103E14008DF8281000F008FA002836D0224B1BBB7E
:103E2400039B073323F0070308330393099B3344AD
:103E340009936AE70C4601200CFB0232A8E7002331
:103E44004FF00A0C194601340593204610F8012B53
:103E5400303A092A03D9002BC6D00591C4E7044699
:103E640001230CFB0121F0E703AB00932A463846FB
:103E74000E4B04A9AFF30080421C0646D6D1AB8991
:103E84005B063FF52DAF09982CE703AB00932A4658
:103E94003846064B04A900F07DF8EDE7D47200081B
:103EA400DA720008DE72000800000000FD3B000822
:103EB4002DE9F047164698468A680B6907469342EF
:103EC400B8BF1346336091F843200C46DDF82090C8
:103ED4000AB1013333602368990642BF3368023361
:103EE4003360256815F0060506D104F1190AE36864
:103EF40032689B1AAB422BDC94F843302268003BB7
:103F040018BF0123920630D44146384604F14302D7
:103F1400C847013023D02368226903F00603042B29
:103F240014BF002533684FF0000608BFE56804F1AC
:103F34001A0408BFED1A54F8123C08BF25EAE575C7
:103F44009342C4BF9B1AED18B5421AD1002008E071
:103F54000123524641463846C847013003D14FF049
:103F6400FF30BDE8F0870135C1E73020E11881F862
:103F740043005A1C94F845102244023382F843103B
:103F8400C2E70123224641463846C8470130E6D0FD
:103F94000136D9E72DE9FF470F7E9146782F8046F9
:103FA4000C469A460C9E01F1430207D8622F0AD8A8
:103FB400002F00F0D280582F00F0B78004F14206A1
:103FC40084F842703AE0A7F16303152BF6D801A1F7
:103FD40051F823F03140000845400008C13F000873
:103FE400C13F0008C13F0008C13F00084540000828
:103FF400C13F0008C13F0008C13F0008C13F00089D
:10400400454100086F400008FB400008C13F00081C
:10401400C13F000867410008C13F00086F40000825
:10402400C13F0008C13F00080341000833681A1D5E
:104034001B68326004F1420684F8423001239DE09B
:1040440033682068191D3160060601D51D6803E038
:104054004506FBD5B3F90050002D03DA2D236D423C
:1040640084F843300A23594810E02168336808066D
:1040740053F8045B02D4490648BFADB26F2F5348CE
:10408400336059D10823002184F843106668002E58
:10409400A66005DB21682E4321F0040121604DD088
:1040A4001646B5FBF3F103FB1157C75D06F8017D16
:1040B4002F46BB420D46F4D9082B0BD12368DF07EA
:1040C40008D5236961689942DEBF302306F8013CB4
:1040D40006F1FF36921B22614B4621464046CDF83D
:1040E40000A003AAFFF7E4FE01304CD14FF0FF30EB
:1040F40004B0BDE8F087236843F0200323607827E9
:10410400334884F84570236831681F0651F8045B0E
:1041140002D45F0648BFADB23160D90744BF43F053
:10412400200323601DB11023ADE72848E9E7236885
:1041340023F020032360F6E70A23A4E71646BBE72F
:1041440033682568181D616930602E061B6801D527
:10415400196002E06806FBD5198000231646236126
:10416400BAE7336800211A1D32601E68626830465F
:1041740000F05AF808B1801B606063682361002373
:1041840084F84330A8E73246494640462369D0477D
:104194000130ABD023689B0713D4E068039B98429B
:1041A400B8BF1846A4E70123324649464046D047E3
:1041B40001309BD00135E36803995B1AAB42F2DC12
:1041C400EBE7002504F11906F5E700BFE5720008E6
:1041D400F6720008884210B501EB020402D9844249
:1041E400234607D8431EA14207D011F8012B03F838
:1041F400012FF8E70244824200D110BD13F8011DDB
:1042040002F8011DF7E7000038B50023054D044608
:1042140008462B6000F05AF8431C02D12B6803B106
:10422400236038BD8C080020034610B5C9B202448F
:104234009342184601D1002003E0047801338C42F4
:10424400F6D110BD0A44914200F1FF3300D170470A
:1042540010B511F8014B914203F8014FF9D110BD8B
:104264002DE9F041074614460D4621B91146BDE833
:10427400F041FFF735BC2AB9FFF7C8FB25462846AD
:10428400BDE8F08100F01AF88442064602D8B4EB87
:10429400500FF4D821463846FFF722FC804608B96F
:1042A4004546ECE7B4422246294628BF3246FFF78A
:1042B400C9FF29463846FFF7A9FBF1E751F8043C4A
:1042C400181F002BBCBF0B58C0187047044A05497F
:1042D4001368002B08BF0B4618441060184670473B
:1042E4009C080020A0080020F8B500BFF8BC08BC5A
:1042F4009E467047F8B500BFF8BC08BC9E467047A0
:1043040048656C6C6F20576F726C640048656C6C08
:104314006F20426C7565746F6F746800413A25664E
:10432400000000000102000002030405060708095A
:104334000A0B0C0D0E0F1010000000000102030404
:104344000000000000000000010203040607080941
:104354000000000000000000000000000000000059
:104364000000000000000000000000000000000049
:104374000000000000000000000000000000000039
:104384000000000000000000000000000000000029
:104394000000000000000000000000000000000019
:1043A400000000000000000007F000C007FFE1E08B
:1043B40007F001E0000000C0000000000000000061
:1043C40000000000000000000000000000000000E9
:1043D40000000000000000000020000001C00000F8
:1043E400078000001F0000001E0000001C200000C9
:1043F40001C00000078000001F0000001E00000034
:104404001C0000000000000000000000000000008C
:104414000000000000180C0000180C0000180FE049
:10442400001FFC0003F80C0000180C0000180C001E
:1044340000180C0000180C0000180FE0001FFC000E
:1044440003F80C0000180C0000180C000000000019
:10445400000000000000000000000780007807C092
:1044640000FC0640010E0020030700200203802008
:104474000FFFFFFC0201C0200200E0600130704029
:1044840001F03F8000F01F00000000000000000069
:1044940000FE000001FF00000301800002008060B4
:1044A400030181C001FF070000FE18000000E000C6
:1044B4000003BF00000CFFC00071806001C1002038
:1044C400030180600000FFC000003F000000000006
:1044D40000001F0000007FC000FCC0C001FF80601E
:1044E4000303E0200202782002061E2003FC07409A
:1044F40001F00380000103C000011C600001E02002
:1045040000010020000100400000018000000000C4
:1045140000000000002000001C6000001C4000009F
:104524001F8000000F0000000000000000000000D9
:104534000000000000000000000000000000000077
:104544000000000000000000000000000000000067
:104554000000000000000000000000000000000057
:104564000000000000000000000000000007F80048
:10457400003FFF00007807C001C000E003000030E6
:1045840004000008080000041000000200000000FD
:1045940000000000100000020800000404000008ED
:1045A4000300003001C000E0007807C0003FFF00B6
:1045B4000007F800000000000000000000000000F8
:1045C40000000000000000000000000000000000E7
:1045D4000000000000000000000C1800000E38006D
:1045E400000E3800000630000003600000614380C4
:1045F40000FFFF80006143000003600000063000FC
:10460400000E3800000E3800000C180000000000F6
:104614000000000000000000000080000000800096
:104624000000800000008000000080000000800086
:10463400007FFF0000008000000080000000800078
:1046440000008000000080000000800000000000E6
:104654000000000000000001000000E3000000E290
:10466400000000FC000000780000000000000000D2
:104674000000000000000000000000000000000036
:104684000000000000000000000000000000000026
:104694000000000000008000000080000000800096
:1046A4000000800000008000000080000000800006
:1046B40000008000000080000000800000008000F6
:1046C4000000800000008000000080000000000066
:1046D4000000000000000000000000C0000001E035
:1046E400000001E0000000C0000000000000000025
:1046F40000000000000000000000000000000000B6
:1047040000000000000000000000000000000000A5
:10471400000000000000000C00000038000000E071
:104724000000038000000E00000038000000E000DC
:1047340000038000000E00000038000000E00000CC
:10474400038000000E0000001800000000000000BC
:104754000000000000000000000FF800007FFF00D0
:1047640000F00780018000C0030000600200002008
:10477400020000200200002003000060018000C04D
:1047840000E00380007FFF00000FF800000000003D
:104794000000000000000000000000000080002075
:1047A40000800020008000200080006001FFFFE006
:1047B40003FFFFE000000060000000200000002074
:1047C40000000020000000000000000000000000C5
:1047D4000000000000000000007800E00098016084
:1047E4000100026002000460020008600200106020
:1047F40002002060020040600300806001830060CA
:1048040001FE00E0007C07800000000000000000C2
:10481400000000000000000000F0078001F007C065
:1048240001000040020000200201002002010020DB
:1048340002010020030380200186804001FCC0C0E7
:1048440000787F8000001E000000000000000000CF
:1048540000000000000008000000380000004800CC
:104864000001880000060800000C08100030081041
:104874000040081001FFFFF003FFFFF003FFFFF00B
:1048840000000810000008100000081000000000DC
:10489400000000000000000000000780001F8640A8
:1048A40003E100200302002003040020030400208D
:1048B400030400200304002003060040030301C096
:1048C4000301FF8003007E000000000000000000E0
:1048D40000000000000000000007FC00003FFF0093
:1048E4000070C380008180C00101006003020020C9
:1048F4000202002002020020020200200203004003
:1049040001C180C000C0FF8000007E0000000000E4
:10491400000000000000000000F0000003C00000E0
:104924000380000003000000030007E003003FE0F1
:104934000301C00003060000031800000360000028
:1049440003800000030000000000000000000000DD
:104954000000000000001F0000783F8000FC60C0E1
:10496400018EC04003078020020300200201802042
:10497400020180200201C0200301E040018670C0D2
:1049840000FC3F8000781F000000000000000000D1
:1049940000000000003F000000FF81C001C0C1C052
:1049A40001006020020020200200202002002020BC
:1049B40002002060020040C00100C18000C18F00DD
:1049C400007FFE00001FF000000000000000000057
:1049D40000000000000000000000000000000000D3
:1049E4000000000000000000000300C0000781E098
:1049F400000781E0000300C0000000000000000088
:104A040000000000000000000000000000000000A2
:104A14000000000000000000000000000000000092
:104A24000000000000000000000600660006007898
:104A34000000000000000000000000000000000072
:104A44000000000000000000000000000000000062
:104A54000000000000000000000080000001C00011
:104A64000003600000063000000C180000180C0061
:104A7400003006000060030000C001800100004017
:104A840002000020040000100000000000000000EC
:104A940000000000000410000004100000041000D6
:104AA40000041000000410000004100000041000B2
:104AB40000041000000410000004100000041000A2
:104AC40000041000000410000004100000000000A6
:104AD400000000000000000004000010020000209C
:104AE4000100004000C001800060030000300600A7
:104AF40000180C00000C18000006300000036000D1
:104B04000001C00000008000000000000000000060
:104B140000000000000000000078000001F8000020
:104B24000238000002000000040000C0040079E024
:104B3400040081E0040100C004030000020200003C
:104B44000306000001FC000000F800000000000063
:104B540000000000000FF800003FFE000070078016
:104B640000C000C00101F8400307FC20021E04201D
:104B74000230082002203020023FFC20013F044084
:104B840001800CC000E03180001FC2000000000062
:104B94000000002000000060000003E000003E2050
:104BA4000003E020003E200003E0200003802000FA
:104BB40007FC2000003FE0000003FE2000003FE06F
:104BC400000001E0000000200000002000000000C0
:104BD40000000000020000200200002003FFFFE0AC
:104BE40003FFFFE002010020020100200201002077
:104BF40002010020020100200303002001868060DE
:104C040001FCC0C000F87F8000001F00000000000D
:104C1400000000000007F800003FFF00007007805C
:104C240000C000C00100004003000020020000207A
:104C340002000020020000200200002001000040C9
:104C4400018000C003C001800030060000000000A5
:104C540000000000020000200200002003FFFFE02B
:104C640003FFFFE0020000200200002002000020F9
:104C7400020000200300006001000040018000C029
:104C840000F00780007FFE00000FF8000000000025
:104C940000000000020000200200002003FFFFE0EB
:104CA40003FFFFE0020100200201002002010020B6
:104CB400020100200201002002038020020FE020F4
:104CC4000300006003C000E0006003000000000077
:104CD40000000000020000200200002003FFFFE0AB
:104CE40003FFFFE002010020020100200201000096
:104CF4000201000002010000020100000203800022
:104D0400030FE0000300000003C000000060000087
:104D1400000000000007F800003FFE00007007805C
:104D240001C001C001000040030000200200002077
:104D34000200002002000020010020200100204089
:104D440003C03F8000303F800000200000002000AE
:104D5400020000200200002003FFFFE003FFFFE049
:104D640002008020020080200000800000008000FB
:104D740000008000020080200200802003FFFFE08A
:104D840003FFFFE0020000200200002000000000FA
:104D940000000000000000000000000002000020ED
:104DA40002000020020000200200002003FFFFE0B8
:104DB40003FFFFE0020000200200002002000020A8
:104DC40002000020000000000000000000000000BD
:104DD400000000000000000E0000000F0000000FA3
:104DE40000000001020000010200000102000003B3
:104DF4000200000603FFFFFC03FFFFF802000000AF
:104E04000200000002000000020000000000000098
:104E140000000000020000200200002003FFFFE069
:104E240003FFFFE00200C020020100200007800011
:104E3400000FE0000030F80002603E2003800F20E5
:104E4400030003E0020000E0020000200000002054
:104E540000000000020000200200002003FFFFE029
:104E640003FFFFE0020000200200002000000020F9
:104E740000000020000000200000002000000020AE
:104E840000000060000000E00000030000000000DB
:104E9400020000200200002003FFFFE003E00020E6
:104EA40003FF0020001FF0000001FF8000000FE05E
:104EB40000001E000003E000003E002003E000208C
:104EC40003FFFFE003FFFFE00200002002000020D8
:104ED400020000200200002003FFFFE00380002006
:104EE40003F0002000FC0000001F00000007C000C9
:104EF4000001F00000007C0002001F80020007E0B7
:104F040003FFFFE0020000000200000000000000B8
:104F140000000000000FF800003FFE0000F00780D2
:104F2400018000C0010000400200002002000020B7
:104F3400020000200200002001000040018000C0A7
:104F440000F00380003FFE00000FF80000000000A6
:104F540000000000020000200200002003FFFFE028
:104F640003FFFFE002008020020080200200800096
:104F74000200800002008000020080000301800023
:104F84000183000000FE0000007C0000000000001F
:104F940000000000000FF800007FFF0000F0038015
:104FA400018001C001000640020004200200042028
:104FB40002000620020003E0010000F80180005C0A
:104FC40000E0038C003FFF0C000FFC180000000001
:104FD40000000000020000200200002003FFFFE0A8
:104FE40003FFFFE002010020020100200201800013
:104FF4000201E0000201FC0003033F80018607E098
:1050040001FC00E000F80020000000200000000087
:1050140000000000000000000078060000FE01E02F
:10502400018600C003030040020300200201802027
:10503400020180200201C0200200C0200100E060C3
:10504400018070C003E03F8000001F0000000000EA
:105054000000000000600000038000000300000066
:1050640002000000020000200200002003FFFFE015
:1050740003FFFFE002000020020000200200000005
:10508400020000000380000000E0000000000000B7
:10509400020000000200000003FFFF0003FFFFC046
:1050A4000200004002000060000000200000002018
:1050B40000000020000000200200004002000080E8
:1050C40003FFFF00020000000200000000000000D7
:1050D40000000000020000000200000003C0000005
:1050E40003FC0000023FC0000003F80000007F80C2
:1050F400000007E000000780000078000203C00001
:10510400023C000003C00000020000000200000096
:105114000200000003C0000003FF8000023FFE0005
:1051240002007FE000000F000200F00003EF000027
:1051340003FF8000020FFE0000003FE000001F009C
:105144000207E00003F80000030000000200000072
:10515400000000000200002002000020038000E0A4
:1051640003F0032002FC0C20021F30000007C000E3
:105174000007F00002187C0002601F20038003E097
:10518400020000E0020000200000002000000000F7
:1051940000000000020000000300000003C0000043
:1051A40003F80000023E0020020FC0200001FFE0CF
:1051B40000007FE000038020021C00200270000039
:1051C4000380000002000000020000000000000054
:1051D4000000000000000020006000E0038003E005
:1051E40003000FA002003E200200F8200203E0208A
:1051F400020F8020023E00200278002003E00060BD
:10520400038000E002000300000000000000000032
:10521400000000000000000000000000000000008A
:1052240000000000000000001FFFFFFC100000044D
:10523400100000041000000410000004100000041A
:105244001000000410000004000000000000000032
:105254000000000000000000000000000700000043
:1052640003C0000000780000001E00000003C0001E
:105274000000F00000001E0000000780000000F0A5
:105284000000003C000000060000000000000000D8
:1052940000000000000000001000000410000004E2
:1052A40010000004100000041000000410000004AA
:1052B400100000041FFFFFFC0000000000000000BD
:1052C40000000000000000000000000000000000DA
:1052D40000000000000000000000000000000000CA
:1052E4000200000004000000080000001800000094
:1052F4001000000018000000180000000400000066
:105304000200000000000000000000000000000097
:105314000000000100000001000000010000000185
:105324000000000100000001000000010000000175
:105334000000000100000001000000010000000165
:105344000000000100000001000000010000000155
:105354000000000000000000000000001000000039
:1053640010000000100000001800000008000000F9
:105374000400000000000000000000000000000025
:105384000000000000000000000000000000000019
:10539400000000000000038000018FC000038C6047
:1053A400000618200004102000041020000420200F
:1053B40000042040000620400003FFC00001FFE07D
:1053C4000000002000000020000000C000000000D9
:1053D40000000000020000000200000003FFFFE0E4
:1053E40007FFFFC0000180C000020060000200202F
:1053F40000040020000400200004002000060040F7
:10540400000300C00001FF800000FE000000000057
:10541400000000000000000000007E000001FF808A
:10542400000381C0000200400006002000040020A8
:105434000004002000040020000600200003C040F7
:105444000001C08000000300000000000000000014
:10545400000000000000000000007E000001FF804A
:10546400000380C000060060000400200004002047
:1054740000040020020400400202008003FFFFE059
:1054840007FFFFC0000000400000004000000000D3
:10549400000000000000000000007E000001FF800A
:1054A400000311C00002104000041060000410202A
:1054B40000041020000410200006102000031040F7
:1054C4000001F0C0000071000000000000000000B6
:1054D40000000000000000000004000000040020A0
:1054E4000004002000040020007FFFE001FFFFE033
:1054F4000104002003040020020400200204002010
:10550400020400000200000001C0000001C000000D
:1055140000000000000000000000001C0000E33E4A
:105524000003FFC200020CC3000404C1000404C150
:10553400000404C1000404C100060CC10003F8C344
:105544000005F0620006007E0006003C000000003A
:1055540000000000020000200200002003FFFFE022
:1055640007FFFFE000010020000200200006000009
:1055740000040000000400000004002000060020D5
:105584000003FFE00001FFE0000000200000002015
:1055940000000000000000000000000000040020E3
:1055A4000004002000040020000400200387FFE022
:1055B400038FFFE003800020000000200000002093
:1055C40000000020000000000000000000000000B7
:1055D40000000000000000000000000000000006C1
:1055E40000000007000000010000000100040001A9
:1055F4000004000100040003000400060387FFFC0C
:10560400038FFFF80380000000000000000000008A
:1056140000000000020000200200002003FFFFE061
:1056240007FFFFE000000820000010200000300009
:105634000000FC0000058E00000707A0000601E042
:10564400000400E00004002000000020000000002E
:105654000000000000000000000000000200002024
:1056640002000020020000200200002003FFFFE0EF
:1056740007FFFFE0000000200000002000000020E1
:1056840000000020000000000000000000000000F6
:1056940000000000000400200007FFE0000FFFE00E
:1056A4000002002000040000000400200007FFE0C6
:1056B4000003FFE0000200200004000000040020BA
:1056C4000007FFE00003FFE00000002000000000EE
:1056D4000000000000040020000400200007FFE098
:1056E400000FFFE000010020000200200002000083
:1056F4000004000000040000000400200006002054
:105704000003FFE00001FFE0000000200000002093
:10571400000000000000000000007E000000FF8088
:10572400000381C0000200400006002000040020A5
:1057340000040020000400200006002000020040B5
:10574400000381C00001FF8000007E000000000013
:105754000000000000040001000400010007FFFF36
:10576400000FFFFF000100C10002004100040020FF
:105774000004002000040020000400200006004073
:10578400000301C00001FF8000007E000000000053
:10579400000000000000000000007E000001FF8007
:1057A400000380C000020060000400200004002008
:1057B400000400200004002000020041000300C196
:1057C4000003FFFF0007FFFF0000000100000001CD
:1057D4000000000000040020000400200004002059
:1057E40000040020000FFFE0000FFFE00000C020D5
:1057F4000001002000020020000600200004000038
:105804000004000000070000000300000000000086
:105814000000000000000000000003E00001C0E000
:105824000003E0400006302000043020000418206B
:10583400000418200004182000040C2000020C604E
:10584400000307C000078380000000000000000080
:10585400000000000000000000040000000400003C
:1058640000040000000C0000001FFF8000FFFFC0C8
:105874000004006000040020000400200004002054
:10588400000400400000018000000000000000004F
:105894000000000000040000000400000007FF8076
:1058A400000FFFC000000060000000200000002086
:1058B40000000020000000200004004000040080DC
:1058C4000007FFE0000FFFC00000004000000040A0
:1058D4000000000000040000000400000007800035
:1058E4000007F0000004FE0000041FC0000003E0F5
:1058F4000000038000001C0000046000000780001A
:105904000006000000040000000000000000000089
:1059140000040000000600000007C0000007FC00AF
:1059240000043F80000003E000040F800006F00044
:105934000007F0000007FF8000040FE00000038070
:1059440000043C000007C000000600000004000042
:10595400000000000000002000040020000400609B
:10596400000700E0000783200007E6000004F800B9
:1059740000003C0000045E20000587A0000601E052
:10598400000400600004002000000020000000006B
:1059940000000000000400000004000300070003EE
:1059A4000007E0010004F80100041F02000007FCE6
:1059B400000000E000000700000438000007C000F9
:1059C40000060000000400000004000000000000C5
:1059D400000000000000000000078060000600E0F6
:1059E400000403E0000407A000040E2000043C208F
:1059F400000470200005E0200007802000070060FC
:105A0400000400E00000038000000000000000002B
:105A14000000000000000000000000000000000082
:105A240000000000000000000000000000008000F2
:105A3400000080000001400007FE3FF80800000459
:105A4400100000021000000200000000000000002E
:105A54000000000000000000000000000000000042
:105A64000000000000000000000000000000000032
:105A7400FFFFFFFF00000000000000000000000026
:105A84000000000000000000000000000000000012
:105A940000000000000000001000000210000002DE
:105AA4000800000407FE3FF80001400000008000E9
:105AB4000000800000000000000000000000000062
:105AC40000000000000000000000000000000000D2
